:0300000002009566
:0C009500787FE4F6D8FD7581200200069B
:10007F0079FF7DFF7CFFDCFEDDFED9FEEF1F7001F7
:05008F001E144E70F18B
:010094002249
:10000600D2A8D2887BD07A077F647E0012007F2038
:10001600B2287F0A7E0012007F20B21E20B214058D
:10002600087F647E0012007FD3E5089423748094D1
:100036008040E97F0A7E0012007FAF08C3EF941E5E
:1000460074809480500EEF9400748094804005B2C2
:10005600CCE4F508C3E508941E748094804005B28C
:10006600CDE4F50830B2FDEB1B70011AEB4A70982F
:09007600D2CDD2AF758702808B58
:030003000200A157
:0B00A100C0D0C2AFA2B29200D0D0329B
:00000001FF
